:100000000C9458000C9475000C9475000C947500B9
:100010000C9475000C9475000C9475000C949B0462
:100020000C9475000C9475000C9475000C9475007C
:100030000C9475000C9475000C9475000C9475006C
:100040000C9475000C9475000C9475000C9475005C
:100050000C9475000C9475000C9475006805680587
:10006000730573057F058405840586058605860569
:100070009205580558056405B405B405C405C405C2
:10008000D405E805E805D805D805D805EA05A4058E
:10009000A405A005270627063706370647065B0690
:1000A0005B064B064B064B065D0617061706130646
:1000B00011241FBECFEFD0E1DEBFCDBF11E0A0E025
:1000C000B1E0EAE4F5E102C005900D92AA33B10770
:1000D000D9F721E0AAE3B1E001C01D92AB34B20729
:1000E000E1F70E94BE080C94A30A0C9400000AC019
:1000F0002FEF33ED40E3215030404040E1F700C0A6
:10010000000001970097A1F7089507C0EFE9FFE00D
:100110003197F1F700C0000001970097B9F70895F3
:1001200005C025E02A95F1F7000001970097C9F76F
:10013000089561E00C94950561E00C94080660E078
:100140000C9408068F929F92AF92BF92CF92DF924B
:10015000EF92FF924B015C0169017A010E948104D8
:1001600060E080E00E94E10282E091E00E94D20320
:10017000C501B4010E947209CB010E94F70361E03E
:1001800080E00E94E10286E091E00E94D203C70174
:10019000B6010E947209CB01FF90EF90DF90CF90E3
:1001A000BF90AF909F908F900C94F703CF9381E016
:1001B0000E94A808C82F80E00E94A808982F8C2FC2
:1001C000CF910895CF9382E00E94A808C82F83E0C2
:1001D0000E94A808982F8C2FCF9108958130B9F0F4
:1001E000072E000C880B990B0E94AA092CE436EA12
:1001F0004AEA5EE30E94360A20E030E04EEF52E425
:100200000E9406090E94790980E00C94FF04719510
:1002100061957109072E000C880B990B0E94AA09A1
:100220002CE436EA4AEA5EE30E94360A20E030E037
:100230004EEF52E40E9406090E94790981E00C9475
:10024000FF04CF93C92F682F70E080E090E00E94F8
:10025000AA092CE436EA4AEA5EE30E94360A20E064
:1002600030E04EEF52E40E9406090E94790980E0D6
:100270000E94FF046C2F70E0719561957109072E43
:10028000000C880B990B0E94AA092CE436EA4AEA72
:100290005EE30E94360A20E030E04EEF52E40E9416
:1002A00006090E94790981E0CF910C94FF04CF9355
:1002B000DF93EB01BC01990F880B990B0E94AA09EF
:1002C0002CE436EA4AEA5EE30E94360A20E030E097
:1002D0004EEF52E40E9406090E94790980E00E94D4
:1002E000FF04662777276C1B7D0B072E000C880BFD
:1002F000990B0E94AA092CE436EA4AEA5EE30E94BE
:10030000360A20E030E04EEF52E40E9406090E94D7
:10031000790981E0DF91CF910C94FF046FE780E0D1
:100320000E94FF046FE781E00C94FF0487E00E94C5
:100330004C0591E0811190E0892F0895CF93DF93D0
:10034000EC016FE780E00E94FF046FE781E00E940C
:10035000FF0460E080E00E94E102CE010E94D2032F
:1003600061E080E00E94E102CE0108960E94D20383
:100370000BC087E00E944C05882351F08FE99FE075
:100380000197F1F700C000000E944605882389F319
:10039000DF91CF9108950C94A8080F931F93CF93EA
:1003A000DF93082F162FD42FC22F0E94810460E004
:1003B00080E00E94E102802F90E00E94F70360E05D
:1003C00084E00E94E102812F90E00E94F70361E047
:1003D00080E00E94E1028D2F90E00E94F70361E02F
:1003E00084E00E94E1028C2F90E0DF91CF911F9179
:1003F0000F910C94F703CF93DF93D82FC62F0E9451
:10040000810460E080E00E94E1028D2F90E00E9474
:10041000F70361E080E00E94E1028C2F90E0DF9121
:10042000CF910C94F703CF93C82F0E94810460E012
:1004300080E00E94E1028C2F90E0CF910C94F703B2
:1004400060EA80E00E94FF046DE581E00E94FF0405
:1004500082E390E0EFE9FFE03197F1F700C00000A0
:100460000197C1F7F5CF6FE880E00E94FF046FE8C5
:1004700081E00E94FF0482E390E0EFE9FFE0319722
:10048000F1F700C000000197C1F7F5CF0E943302D9
:100490005D9A5C980895262F3FEF81110EC063038B
:1004A000C001112464E670E00E94DC086093B30090
:1004B00012169CF45C9A5D9808956303C0011124A0
:1004C00064E670E00E94DC0867BD12161CF45E9AB8
:1004D0005F9808955F9A5E9808950C944802CF93B0
:1004E000DF93C3EBD0E018820E94480217BC5F9AEA
:1004F0005E9884B1806984B98AB1806F8AB9E0EB73
:10050000F0E080818866808380818260808384B50A
:10051000886684BD84B5826084BD8AE087BD888397
:10052000DF91CF9108955C9A5D982C9A5F9A5E98BE
:100530002F9A08958AE08A95F1F700C0449A8AE0DC
:100540008A95F1F700C044988AE08A95F1F700C0D7
:100550000895F89482B98AE08A95F1F700C0449A28
:100560008AE08A95F1F700C044988AE08A95F1F70D
:1005700000C0789408958F98F89482B98AE08A959B
:10058000F1F700C0449A8AE08A95F1F700C04498D8
:100590008AE08A95F1F700C0789408958F9AF894CC
:1005A00082B98AE08A95F1F700C0449A8AE08A9578
:1005B000F1F700C044988AE08A95F1F700C078947A
:1005C0000895803110F4623008F0089590E4699F36
:1005D000800D112480588F98F89482B98AE08A950A
:1005E000F1F700C0449A9AE09A95F1F700C0449858
:1005F0008AE08A95F1F700C0789495EC9A95F1F726
:10060000000008953C9A879A8FEF81B98FE19EE4AC
:100610000197F1F700C000008F98F89488E382B941
:100620009AE09A95F1F700C0449AEAE0EA95F1F76A
:1006300000C04498FAE0FA95F1F700C07894EFE72B
:10064000F2E03197F1F700C000008F98F89482B97A
:10065000FAE0FA95F1F700C0449A9AE09A95F1F71A
:1006600000C04498EAE0EA95F1F700C07894EFE71B
:10067000F2E03197F1F700C000008F98F89482B94A
:10068000FAE0FA95F1F700C0449A9AE09A95F1F7EA
:1006900000C04498EAE0EA95F1F700C07894EFE7EB
:1006A000F2E03197F1F700C000008F98F89498E0DD
:1006B00092B9FAE0FA95F1F700C0449A9AE09A9557
:1006C000F1F700C04498EAE0EA95F1F700C07894A9
:1006D000EFE7F2E03197F1F700C000008F98F8944F
:1006E00091E092B9FAE0FA95F1F700C0449A9AE0E5
:1006F0009A95F1F700C04498EAE0EA95F1F700C056
:100700007894EFE7FEE33197F1F700C000008F988F
:10071000F89496E092B9FAE0FA95F1F700C0449A9D
:100720009AE09A95F1F700C04498EAE0EA95F1F76B
:1007300000C07894EFE7F2E03197F1F700C00000D5
:100740008F98F89482B9FAE0FA95F1F700C0449ACC
:100750008AE08A95F1F700C044989AE09A95F1F7FB
:1007600000C07894EFE8F1E03197F1F700C00000A5
:100770008F98F8948CE082B9FAE0FA95F1F700C00E
:10078000449A8AE08A95F1F700C044989AE09A95D5
:10079000F1F700C07894EFE8F1E03197F1F700C08D
:1007A00000000895DC019C91992301F120E08F9ACB
:1007B000F89492B98AE08A95F1F700C0449A9AE0D9
:1007C0009A95F1F700C044988AE08A95F1F700C045
:1007D00078948FE792E00197F1F700C000002F5F57
:1007E000FD01E20FF11D90819111E1CF08951F935A
:1007F000CF93DF93FC01892B09F466C045E011E03B
:100800002FE037E2E9012196CF01BE010E94C8081E
:1008100061111DC02E173F0708F052C01123A9F126
:1008200011E0CF01BE010E94C808FC01ADECBCEC98
:100830000E94F6089C0136952795369527953695A2
:1008400027954150F9F6DF91CF911F9108952E170A
:100850003F07D8F0605D8F9AF89462B99AE09A9554
:10086000F1F700C0449A8AE08A95F1F700C04498F5
:100870009AE09A95F1F700C078948FE792E001979B
:10088000F1F700C0000010E0D1CF605D8F9AF894BE
:1008900062B99AE09A95F1F700C0449A8AE08A9585
:1008A000F1F700C044989AE09A95F1F700C0789467
:1008B0008FE792E00197F1F700C0000010E0B1CFA0
:1008C000112341F211E0B2CF8F9AF89480E382B9FC
:1008D0008AE08A95F1F700C0449A9AE09A95F1F778
:1008E00000C044988AE08A95F1F700C078948FE7B9
:1008F00092E00197F1F700C00000DF91CF911F91C6
:1009000008958F98F89481E082B98AE08A95F1F78A
:1009100000C0449A9AE09A95F1F700C044988AE0A2
:100920008A95F1F700C078948FE79EE30197F1F77D
:1009300000C0000008951F920F920FB60F9211246D
:100940002F933F934F935F936F937F938F939F93D7
:10095000EF93FF9380913A01409188005091890074
:1009600080FD30C08695E82FF0E0EE0FFF1FED5BB5
:10097000FE4F20813181240F351F30938900209351
:10098000880048B121E030E0B90102C0660F771F4E
:100990008A95E2F7CB01842B88B980913A018F5F69
:1009A000877080933A01FF91EF919F918F917F9192
:1009B0006F915F914F913F912F910F900FBE0F90CC
:1009C0001F9018958695E82FF0E0EE0FFF1FE55C6D
:1009D000FE4F20813181240F351F309389002093F1
:1009E000880048B121E030E0B90102C0660F771FEE
:1009F0008A95E2F7CB018095842388B9CECF90E029
:100A00002AE0629FB00111246C53764F880F991F22
:100A1000FC01ED5BFE4F71836083FC01E55CFE4FE2
:100A200024ED30E3261B370B318320830895A3E4A4
:100A3000B1E024EC39E011963C932E93EBE3F1E026
:100A400080E197E29183808313963C932E931297D3
:100A50009383828315963C932E9314979583848376
:100A600017963C932E9316979783868387B18F6052
:100A700087B9E1E8F0E01082808182608083EFE650
:100A8000F0E0808182608083789408958CB18095B5
:100A9000881F8827881F0895482F50E04E30510541
:100AA00010F080E00895FA01E25DFF4F0C94F00829
:100AB00023B130E08950A90102C0559547958A9528
:100AC000E2F7CA018170089583B186958170089517
:100AD0002CB130E0A90102C0559547958A95E2F7FF
:100AE000CA018170089522B330E08F5FA90102C06E
:100AF000559547958A95E2F7CA01817008958CB1A2
:100B000086FB882780F9089523B1E3CF26B130E032
:100B10008250A90102C0559547958A95E2F7CA010E
:100B20008170089583B181700895962F482F50E009
:100B30004E30510540F4FA01E45CFF4F0C94F0088C
:100B4000611164C02198089544B1895021E030E0DA
:100B5000B90102C0660F771F8A95E2F79923F1F178
:100B6000CB01842B84B908954DB121E030E0B90167
:100B700002C0660F771F8A95E2F7992309F43FC0F8
:100B8000CB01842B8DB9089543B38F5F21E030E012
:100B9000B90102C0660F771F8A95E2F7992329F100
:100BA000CB01842B83BB08956623E9F06E9A0895E8
:100BB00047B1825021E030E0B90102C0660F771FD3
:100BC0008A95E2F79923B1F0CB01842B87B9089578
:100BD00044B1BCCF6623C1F0209A0895CB01809523
:100BE000842384B908956E980895CB018095842359
:100BF00083BB0895CB018095842387B90895CB01E9
:100C0000809584238DB9089520980895219A089598
:100C1000962F482F50E04E30510540F4FA01E65B24
:100C2000FF4F0C94F008611164C02998089545B1F4
:100C3000895021E030E0B90102C0660F771F8A9524
:100C4000E2F79923F1F1CB01842B85B908954EB1D8
:100C500021E030E0B90102C0660F771F8A95E2F704
:100C6000992309F43FC0CB01842B8EB9089544B376
:100C70008F5F21E030E0B90102C0660F771F8A95CF
:100C8000E2F7992329F1CB01842B84BB08956623D5
:100C9000E9F0769A089548B1825021E030E0B90138
:100CA00002C0660F771F8A95E2F79923B1F0CB0156
:100CB000842B88B9089545B1BCCF6623C1F0289A2A
:100CC0000895CB018095842385B908957698089579
:100CD000CB018095842384BB0895CB018095842328
:100CE00088B90895CB01809584238EB908952898FA
:100CF0000895299A0895811104C0613031F0A098B7
:100D00000895613021F0A1980895A09A0895A19ABC
:100D10000895882311F0A19A0895A09A0895882330
:100D200011F0A1980895A0980895529A83B3836012
:100D300083BB779A0E949D080E9402030E941705B8
:100D40000E946F0241E06AE28CE10E9467082FEF87
:100D500081EE94E0215080409040E1F700C0000017
:100D60000C94D1068DB18F7C8DB985E08A95F1F711
:100D700000006D9A759885E08A95F1F700006C9AED
:100D8000749885E08A95F1F7000008956C9885E0E5
:100D90008A95F1F700006D9885E08A95F1F70000DB
:100DA00008956D9885E08A95F1F7000065990DC06A
:100DB0006C9885E08A95F1F700006C9A749885E04C
:100DC0008A95F1F70000659BF3CF6C9808956C98B5
:100DD00085E08A95F1F700006C9A749885E08A9511
:100DE000F1F7000008951F93CF93DF93D82FC62FFC
:100DF000142F0E94D1060E94B20687E013C06D989E
:100E000095E09A95F1F700006C9895E09A95F1F7C6
:100E100000006C9A749895E09A95F1F70000DD0F48
:100E2000815029F0D6FDEBCF6D9A7598E9CF6D9A78
:100E3000759885E08A95F1F700006C9895E09A9591
:100E4000F1F700006C9A749885E08A95F1F700003C
:100E50006D9895E09A95F1F700006C98659B05C038
:100E60008FE191E00E94D203FFCF85E08A95F1F7F0
:100E700000006C9A749895E09A95F1F7000088E06C
:100E800014C06D9A759895E09A95F1F700006C98EA
:100E900095E09A95F1F700006C9A749895E09A9510
:100EA000F1F70000CC0F815021F0C7FFEACF6D9819
:100EB000EACF6D9885E08A95F1F700006C98659B04
:100EC00005C08BE291E00E94D203FFCF95E09A9596
:100ED000F1F700006C9A749885E08A95F1F70000AC
:100EE000112351F06C9895E09A95F1F700006D98F8
:100EF00085E08A95F1F70000DF91CF911F91089569
:100F0000FC016623D1F14FEF460F50E04F5F5F4F7A
:100F1000480F591F908128E016C06D9A759885E09A
:100F20008A95F1F700006C9885E08A95F1F700004A
:100F30006C9A749885E08A95F1F700009081990F7A
:100F40009083215021F097FFE8CF6D98E8CF31963C
:100F50006D9885E08A95F1F700006C98659918C046
:100F600085E08A95F1F700006C9A749885E08A957F
:100F7000F1F70000E417F50769F66C9885E08A95AB
:100F8000F1F700006D9885E08A95F1F7000008956B
:100F900088E291E00E94D203FFCF0F931F93CF937B
:100FA000DF93082FEB01142F0E94B20687E013C0D5
:100FB0006D9895E09A95F1F700006C9895E09A95F8
:100FC000F1F700006C9A749895E09A95F1F700009B
:100FD000000F815029F006FDEBCF6D9A7598E9CF8F
:100FE0006D9885E08A95F1F700006C9895E09A95E8
:100FF000F1F700006C9A749885E08A95F1F700008B
:101000006D9895E09A95F1F700006C98659B05C086
:1010100080E391E00E94D203FFCF85E08A95F1F74B
:1010200000006C9A749895E09A95F1F700006D981D
:1010300085E08A95F1F700001123B1F12FEF210F20
:1010400030E02F5F3F4F2C0F3D1F98E08881880FC5
:1010500088836C9885E08A95F1F70000659B03C052
:1010600088818160888385E08A95F1F700006C9A19
:10107000749885E08A95F1F70000915039F76D9AE0
:10108000759895E09A95F1F700006C9885E08A953F
:10109000F1F700006C9A749895E09A95F1F70000CA
:1010A00021962C173D0789F695E09A95F1F70000F7
:1010B0006C9885E08A95F1F700006D9895E09A9517
:1010C000F1F70000DF91CF911F910F910895CF9319
:1010D000DF931F92CDB7DEB7498340E00E94F3064D
:1010E00061E0CE0101960E9480070F90DF91CF91C1
:1010F00008951F93CF93DF931F92CDB7DEB7182FBC
:10110000198241E00E94F30641E0BE016F5F7F4F0C
:10111000812F0E94CD0789810F90DF91CF911F9180
:10112000089561E08CE10C94790863E08CE10C9403
:10113000790865E08CE10C947908EAE7F0E08081B9
:1011400087688083ECE7F0E0808180668083089583
:1011500090917C00987F90937C0090917C00892BEB
:1011600080937C0080917A00806480937A008091E3
:101170007A0086FDFCCF8091790008950E94950643
:1011800080910001909101010E949E010E94330212
:10119000AA1BBB1B51E107C0AA1FBB1FA617B7079D
:1011A00010F0A61BB70B881F991F5A95A9F78095B9
:1011B0009095BC01CD01089597FB072E16F400947D
:1011C00007D077FD09D00E94C80807FC05D03EF47F
:1011D000909581959F4F0895709561957F4F0895E3
:1011E000EE0FFF1F0590F491E02D0994A29FB0012E
:1011F000B39FC001A39F700D811D1124911DB29F4B
:10120000700D811D1124911D08955058BB27AA27E8
:101210000E941D090C94FC090E94EE0938F00E94FE
:10122000F50920F039F49F3F19F426F40C94EB09EA
:101230000EF4E095E7FB0C94E509E92F0E940D0AF6
:1012400058F3BA17620773078407950720F079F4FB
:10125000A6F50C942F0A0EF4E0950B2EBA2FA02DB4
:101260000B01B90190010C01CA01A0011124FF2753
:10127000591B99F0593F50F4503E68F11A16F0404E
:10128000A22F232F342F4427585FF3CF469537954D
:101290002795A795F0405395C9F77EF41F16BA0B12
:1012A000620B730B840BBAF09150A1F0FF0FBB1FC0
:1012B000661F771F881FC2F70EC0BA0F621F731F09
:1012C000841F48F4879577956795B795F7959E3F66
:1012D00008F0B0CF9395880F08F09927EE0F9795F7
:1012E000879508950E9479096894B1110C94300A89
:1012F00008950E94150A88F09F5798F0B92F9927F2
:10130000B751B0F0E1F0660F771F881F991F1AF0F0
:10131000BA95C9F714C0B13091F00E942F0AB1E01C
:1013200008950C942F0A672F782F8827B85F39F01B
:10133000B93FCCF3869577956795B395D9F73EF489
:1013400090958095709561957F4F8F4F9F4F089531
:10135000E89409C097FB3EF490958095709561954F
:101360007F4F8F4F9F4F9923A9F0F92F96E9BB2705
:101370009395F695879577956795B795F111F8CF81
:10138000FAF4BB0F11F460FF1BC06F5F7F4F8F4FEC
:101390009F4F16C0882311F096E911C0772321F0E2
:1013A0009EE8872F762F05C0662371F096E8862F7A
:1013B00070E060E02AF09A95660F771F881FDAF7D1
:1013C000880F9695879597F9089597F99F6780E814
:1013D00070E060E008959FEF80EC089500240A9487
:1013E0001616170618060906089500240A94121600
:1013F0001306140605060895092E0394000C11F433
:10140000882352F0BB0F40F4BF2B11F460FF04C0DF
:101410006F5F7F4F8F4F9F4F089557FD9058440F38
:10142000551F59F05F3F71F04795880F97FB991F43
:1014300061F09F3F79F08795089512161306140600
:10144000551FF2CF4695F1DF08C01616170618068D
:10145000991FF1CF86957105610508940895E89468
:10146000BB2766277727CB0197F908950E94490A81
:101470000C94FC090E94EE0938F00E94F50920F056
:10148000952311F00C94E5090C94EB0911240C94AC
:10149000300A0E940D0A70F3959FC1F3950F50E03A
:1014A000551F629FF001729FBB27F00DB11D639F16
:1014B000AA27F00DB11DAA1F649F6627B00DA11DBC
:1014C000661F829F2227B00DA11D621F739FB00D62
:1014D000A11D621F839FA00D611D221F749F3327D2
:1014E000A00D611D231F849F600D211D822F762F6B
:1014F0006A2F11249F5750409AF0F1F088234AF048
:10150000EE0FFF1FBB1F661F771F881F91505040B3
:10151000A9F79E3F510580F00C94E5090C94300A20
:101520005F3FE4F3983ED4F3869577956795B7953A
:10153000F795E7959F5FC1F7FE2B880F911D969554
:0A154000879597F90895F894FFCFFE
:10154A000A01733A2000703A20004C6162352C205F
:10155A00707265737320746F2073746172740061A2
:10156A006464724E41434B0077725F4E41434B00B5
:0A157A00726561644E41434B0000AE
:00000001FF
