:100000000C9458000C9475000C9475000C947500B9
:100010000C9475000C9475000C9475000C94EB0511
:100020000C9475000C9475000C9475000C9475007C
:100030000C9475000C9475000C9475000C9475006C
:100040000C9475000C9475000C9475000C9475005C
:100050000C9475000C9475000C947500B806B806E5
:10006000C306C306CF06D406D406D606D606D606E1
:10007000E206A806A806B406040704071407140736
:100080002407380738072807280728073A07F406FF
:10009000F406F00677077707870787079707AB0708
:1000A000AB079B079B079B07AD07670767076307BE
:1000B00011241FBECFEFD0E1DEBFCDBF11E0A0E025
:1000C000B1E0E6EBF9E102C005900D92AE32B10766
:1000D000D9F721E0AEE2B1E001C01D92A334B2072E
:1000E000E1F70E94210A0C94D90C0C940000919520
:1000F00081959109BC01990F880B990B0E94300BD7
:100100002CE436EA4AEA5EE30E94BC0B20E030E0D1
:100110004EEF52E40E948C0A0E94FF0A81E00C9488
:100120004F060AC02FEF33ED40E3215030404040EE
:10013000E1F700C0000001970097A1F7089507C0FC
:10014000EFE9FFE03197F1F700C000000197009759
:10015000B9F7089505C025E02A95F1F70000019749
:100160000097C9F7089561E00C94E50661E00C94EE
:10017000580760E00C9458078F929F92AF92BF92FD
:10018000CF92DF92EF92FF924B015C0169017A01FD
:100190000E94D10560E080E00E94310486E091E099
:1001A0000E942205C501B4010E94F80ACB010E94F9
:1001B000470561E080E00E9431048AE091E00E94FE
:1001C0002205C701B6010E94F80ACB01FF90EF900B
:1001D000DF90CF90BF90AF909F908F900C94470589
:1001E000CF9381E00E94F809C82F80E00E94F809AF
:1001F000982F8C2FCF910895CF9382E00E94F80919
:10020000C82F81E00E94F809982F8C2FCF91089574
:10021000CF93DF93EC0183E00E94F809888382E0AA
:100220000E94F809898381E00E94F8098A8380E0AE
:100230000E94F8098B83DF91CF91089585E00C949B
:10024000F8098130B9F0072E000C880B990B0E9439
:10025000300B2CE436EA4AEA5EE30E94BC0B20E055
:1002600030E04EEF52E40E948C0A0E94FF0A80E0C8
:100270000C944F06CB010C947700CF93C92F682FB5
:1002800070E080E090E00E94300B2CE436EA4AEA0D
:100290005EE30E94BC0B20E030E04EEF52E40E948F
:1002A0008C0A0E94FF0A80E00E944F066C2F70E0CB
:1002B000719561957109072E000C880B990B0E94AE
:1002C000300B2CE436EA4AEA5EE30E94BC0B20E0E5
:1002D00030E04EEF52E40E948C0A0E94FF0A81E057
:1002E000CF910C944F06CF93DF93EB01BC01990F94
:1002F000880B990B0E94300B2CE436EA4AEA5EE345
:100300000E94BC0B20E030E04EEF52E40E948C0AC9
:100310000E94FF0A80E00E944F06662777276C1B29
:100320007D0B072E000C880B990B0E94300B2CE4E0
:1003300036EA4AEA5EE30E94BC0B20E030E04EEF72
:1003400052E40E948C0A0E94FF0A81E0DF91CF9163
:100350000C944F066FE780E00E944F0680E090E02B
:100360000C94770087E00E949C0691E0811190E058
:10037000892F0895CF93DF93EC016FE780E00E940F
:100380004F0680E090E00E94770060E080E00E94ED
:100390003104CE010E94220561E080E00E94310418
:1003A000CE0108960E9422050BC087E00E949C06A1
:1003B000882351F08FE99FE00197F1F700C000001A
:1003C0000E949606882389F384EF91E0EFE9FFE02D
:1003D0003197F1F700C000000197C1F7DF91CF918D
:1003E00008950C94F8090F931F93CF93DF93082F70
:1003F000162FD42FC22F0E94D10560E080E00E940A
:100400003104802F90E00E94470560E084E00E9464
:100410003104812F90E00E94470561E080E00E9456
:1004200031048D2F90E00E94470561E084E00E9436
:1004300031048C2F90E0DF91CF911F910F910C949C
:100440004705CF93DF93D82FC62F0E94D10560E0D8
:1004500080E00E9431048D2F90E00E94470561E00A
:1004600080E00E9431048C2F90E0DF91CF910C94BA
:100470004705CF93C82F0E94D10560E080E00E941D
:1004800031048C2F90E0CF910C94470560EA80E016
:100490000E944F066DE581E00E944F0682E390E0E6
:1004A000EFE9FFE03197F1F700C000000197C1F7D5
:1004B000F5CF6FE880E00E944F066FE881E00E9470
:1004C0004F0682E390E0EFE9FFE03197F1F700C0DB
:1004D00000000197C1F7F5CF0E945902823040F029
:1004E0006FE880E00E944F066FE881E00C944F06B1
:1004F0006EE680E00E944F066EE681E00C944F06A7
:10050000CF93DF930E946E02C6EFD1E002C0219725
:1005100089F085E00E94F8098931C8F76FE780E02B
:100520000E944F0680E090E00E94770080E0DF911B
:10053000CF91089581E0DF91CF9108956FE880E039
:100540000E944F066EE681E00C944F06CF93DF9336
:1005500000D000D0CDB7DEB70E949E0209C08A81CC
:100560008B3AE8F48B818B3A50F58C818B3AB8F555
:10057000CE0101960E94080189818B3A80F36FE7D2
:1005800080E00E944F0680E090E00E94770083E0C8
:100590000F900F900F900F90DF91CF9108956FE71C
:1005A00080E00E944F0680E090E00E94770082E0A9
:1005B0000F900F900F900F90DF91CF9108956FE7FC
:1005C00080E00E944F0680E090E00E94770081E08A
:1005D0000F900F900F900F90DF91CF9108956FE7DC
:1005E00080E00E944F0680E090E00E94770080E06B
:1005F0000F900F900F900F90DF91CF910895CF93B0
:10060000C82F0E946E02C13071F110F1C230A9F002
:10061000C33051F484E190E0EFE9FFE03197F1F766
:1006200000C000000197C1F76FE780E00E944F060D
:1006300080E090E0CF910C94770084E190E0EFE9C6
:10064000FFE03197F1F700C000000197C1F7ECCF50
:1006500084E190E0EFE9FFE03197F1F700C000009E
:100660000197C1F7E1CF84E190E0EFE9FFE0319736
:10067000F1F700C000000197C1F7D6CF1F93CF93C9
:10068000DF93182F0E94750CEC01812F0E946E02DF
:10069000CE016FEF7FE70E94620A24EF31E0629F94
:1006A000C001639F900D729F900D1124009741F03F
:1006B000EFE9FFE03197F1F700C000000197C1F7C3
:1006C000DF91CF911F9108950F931F93CF93DF93E5
:1006D00000D000D0CDB7DEB70E949E0204EF11E03B
:1006E0000CC08A818B3A80F48B818B3A68F48C81C0
:1006F0008B3A50F401501109C9F0CE0101960E94C5
:10070000080189818B3A68F36FE780E00E944F0609
:1007100080E090E00E94770081E00F900F900F90B2
:100720000F90DF91CF911F910F91089580E0F5CF49
:100730005D9A5C980895262F3FEF81110EC06303E8
:10074000C001112464E670E00E94620A6093B30065
:1007500012169CF45C9A5D9808956303C0011124FD
:1007600064E670E00E94620A67BD12161CF45E9A8D
:100770005F9808955F9A5E9808950C949803CF93BC
:10078000DF93C3EBD0E018820E94980317BC5F9AF6
:100790005E9884B1806984B98AB1806F8AB9E0EBD0
:1007A000F0E080818866808380818260808384B568
:1007B000886684BD84B5826084BD8AE087BD8883F5
:1007C000DF91CF9108955C9A5D982C9A5F9A5E981C
:1007D0002F9A08958AE08A95F1F700C0449A8AE03A
:1007E0008A95F1F700C044988AE08A95F1F700C035
:1007F0000895F89482B98AE08A95F1F700C0449A86
:100800008AE08A95F1F700C044988AE08A95F1F76A
:1008100000C0789408958F98F89482B98AE08A95F8
:10082000F1F700C0449A8AE08A95F1F700C0449835
:100830008AE08A95F1F700C0789408958F9AF89429
:1008400082B98AE08A95F1F700C0449A8AE08A95D5
:10085000F1F700C044988AE08A95F1F700C07894D7
:100860000895803110F4623008F0089590E4699F93
:10087000800D112480588F98F89482B98AE08A9567
:10088000F1F700C0449A9AE09A95F1F700C04498B5
:100890008AE08A95F1F700C0789495EC9A95F1F783
:1008A000000008953C9A879A8FEF81B98FE19EE40A
:1008B0000197F1F700C000008F98F89488E382B99F
:1008C0009AE09A95F1F700C0449AEAE0EA95F1F7C8
:1008D00000C04498FAE0FA95F1F700C07894EFE789
:1008E000F2E03197F1F700C000008F98F89482B9D8
:1008F000FAE0FA95F1F700C0449A9AE09A95F1F778
:1009000000C04498EAE0EA95F1F700C07894EFE778
:10091000F2E03197F1F700C000008F98F89482B9A7
:10092000FAE0FA95F1F700C0449A9AE09A95F1F747
:1009300000C04498EAE0EA95F1F700C07894EFE748
:10094000F2E03197F1F700C000008F98F89498E03A
:1009500092B9FAE0FA95F1F700C0449A9AE09A95B4
:10096000F1F700C04498EAE0EA95F1F700C0789406
:10097000EFE7F2E03197F1F700C000008F98F894AC
:1009800091E092B9FAE0FA95F1F700C0449A9AE042
:100990009A95F1F700C04498EAE0EA95F1F700C0B3
:1009A0007894EFE7FEE33197F1F700C000008F98ED
:1009B000F89496E092B9FAE0FA95F1F700C0449AFB
:1009C0009AE09A95F1F700C04498EAE0EA95F1F7C9
:1009D00000C07894EFE7F2E03197F1F700C0000033
:1009E0008F98F89482B9FAE0FA95F1F700C0449A2A
:1009F0008AE08A95F1F700C044989AE09A95F1F759
:100A000000C07894EFE8F1E03197F1F700C0000002
:100A10008F98F8948CE082B9FAE0FA95F1F700C06B
:100A2000449A8AE08A95F1F700C044989AE09A9532
:100A3000F1F700C07894EFE8F1E03197F1F700C0EA
:100A400000000895DC019C91992301F120E08F9A28
:100A5000F89492B98AE08A95F1F700C0449A9AE036
:100A60009A95F1F700C044988AE08A95F1F700C0A2
:100A700078948FE792E00197F1F700C000002F5FB4
:100A8000FD01E20FF11D90819111E1CF08951F93B7
:100A9000CF93DF93FC01892B09F466C045E011E098
:100AA0002FE037E2E9012196CF01BE010E944E0AF4
:100AB00061111DC02E173F0708F052C01123A9F184
:100AC00011E0CF01BE010E944E0AFC01ADECBCEC6E
:100AD0000E947C0A9C013695279536952795369578
:100AE00027954150F9F6DF91CF911F9108952E1768
:100AF0003F07D8F0605D8F9AF89462B99AE09A95B2
:100B0000F1F700C0449A8AE08A95F1F700C0449852
:100B10009AE09A95F1F700C078948FE792E00197F8
:100B2000F1F700C0000010E0D1CF605D8F9AF8941B
:100B300062B99AE09A95F1F700C0449A8AE08A95E2
:100B4000F1F700C044989AE09A95F1F700C07894C4
:100B50008FE792E00197F1F700C0000010E0B1CFFD
:100B6000112341F211E0B2CF8F9AF89480E382B959
:100B70008AE08A95F1F700C0449A9AE09A95F1F7D5
:100B800000C044988AE08A95F1F700C078948FE716
:100B900092E00197F1F700C00000DF91CF911F9123
:100BA00008958F98F89481E082B98AE08A95F1F7E8
:100BB00000C0449A9AE09A95F1F700C044988AE000
:100BC0008A95F1F700C078948FE79EE30197F1F7DB
:100BD00000C0000008951F920F920FB60F921124CB
:100BE0002F933F934F935F936F937F938F939F9335
:100BF000EF93FF9380912E014091880050918900DE
:100C000080FD30C08695E82FF0E0EE0FFF1FE95C15
:100C1000FE4F20813181240F351F309389002093AE
:100C2000880048B121E030E0B90102C0660F771FAB
:100C30008A95E2F7CB01842B88B980912E018F5FD2
:100C4000877080932E01FF91EF919F918F917F91FB
:100C50006F915F914F913F912F910F900FBE0F9029
:100C60001F9018958695E82FF0E0EE0FFF1FE15DCD
:100C7000FE4F20813181240F351F3093890020934E
:100C8000880048B121E030E0B90102C0660F771F4B
:100C90008A95E2F7CB018095842388B9CECF90E086
:100CA0002AE0629FB00111246C53764F880F991F80
:100CB000FC01E95CFE4F71836083FC01E15DFE4F46
:100CC00024ED30E3261B370B318320830895A7E3FF
:100CD000B1E024EC39E011963C932E93EFE2F1E081
:100CE00080E197E29183808313963C932E93129731
:100CF0009383828315963C932E93149795838483D4
:100D000017963C932E9316979783868387B18F60AF
:100D100087B9E1E8F0E01082808182608083EFE6AD
:100D2000F0E0808182608083789408958CB1809512
:100D3000881F8827881F0895482F50E04E3051059E
:100D400010F080E00895FA01E25DFF4F0C94760AFE
:100D500023B130E08950A90102C0559547958A9585
:100D6000E2F7CA018170089583B186958170089574
:100D70002CB130E0A90102C0559547958A95E2F75C
:100D8000CA018170089522B330E08F5FA90102C0CB
:100D9000559547958A95E2F7CA01817008958CB1FF
:100DA00086FB882780F9089523B1E3CF26B130E090
:100DB0008250A90102C0559547958A95E2F7CA016C
:100DC0008170089583B181700895962F482F50E067
:100DD0004E30510540F4FA01E45CFF4F0C94760A62
:100DE000611164C02198089544B1895021E030E038
:100DF000B90102C0660F771F8A95E2F79923F1F1D6
:100E0000CB01842B84B908954DB121E030E0B901C4
:100E100002C0660F771F8A95E2F7992309F43FC055
:100E2000CB01842B8DB9089543B38F5F21E030E06F
:100E3000B90102C0660F771F8A95E2F7992329F15D
:100E4000CB01842B83BB08956623E9F06E9A089545
:100E500047B1825021E030E0B90102C0660F771F30
:100E60008A95E2F79923B1F0CB01842B87B90895D5
:100E700044B1BCCF6623C1F0209A0895CB01809580
:100E8000842384B908956E980895CB0180958423B6
:100E900083BB0895CB018095842387B90895CB0146
:100EA000809584238DB9089520980895219A0895F6
:100EB000962F482F50E04E30510540F4FA01E65B82
:100EC000FF4F0C94760A611164C02998089545B1CA
:100ED000895021E030E0B90102C0660F771F8A9582
:100EE000E2F79923F1F1CB01842B85B908954EB136
:100EF00021E030E0B90102C0660F771F8A95E2F762
:100F0000992309F43FC0CB01842B8EB9089544B3D3
:100F10008F5F21E030E0B90102C0660F771F8A952C
:100F2000E2F7992329F1CB01842B84BB0895662332
:100F3000E9F0769A089548B1825021E030E0B90195
:100F400002C0660F771F8A95E2F79923B1F0CB01B3
:100F5000842B88B9089545B1BCCF6623C1F0289A87
:100F60000895CB018095842385B9089576980895D6
:100F7000CB018095842384BB0895CB018095842385
:100F800088B90895CB01809584238EB90895289857
:100F90000895299A0895811104C0613031F0A09814
:100FA0000895613021F0A1980895A09A0895A19A1A
:100FB0000895882311F0A19A0895A09A089588238E
:100FC00011F0A1980895A0980895529A83B3836070
:100FD00083BB779A0E94ED090E9452040E94670623
:100FE0000E94BF0341E06AE28CE10E94B7092FEF43
:100FF00081EE94E0215080409040E1F700C0000075
:101000000C9421088DB18F7C8DB985E08A95F1F71C
:1010100000006D9A759885E08A95F1F700006C9A4A
:10102000749885E08A95F1F7000008956C9885E042
:101030008A95F1F700006D9885E08A95F1F7000038
:1010400008956D9885E08A95F1F7000065990DC0C7
:101050006C9885E08A95F1F700006C9A749885E0A9
:101060008A95F1F70000659BF3CF6C9808956C9812
:1010700085E08A95F1F700006C9A749885E08A956E
:10108000F1F7000008951F93CF93DF93D82FC62F59
:10109000142F0E9421080E94020887E013C06D9857
:1010A00095E09A95F1F700006C9895E09A95F1F724
:1010B00000006C9A749895E09A95F1F70000DD0FA6
:1010C000815029F0D6FDEBCF6D9A7598E9CF6D9AD6
:1010D000759885E08A95F1F700006C9895E09A95EF
:1010E000F1F700006C9A749885E08A95F1F700009A
:1010F0006D9895E09A95F1F700006C98659B05C096
:1011000083E191E00E942205FFCF85E08A95F1F707
:1011100000006C9A749895E09A95F1F7000088E0C9
:1011200014C06D9A759895E09A95F1F700006C9847
:1011300095E09A95F1F700006C9A749895E09A956D
:10114000F1F70000CC0F815021F0C7FFEACF6D9876
:10115000EACF6D9885E08A95F1F700006C98659B61
:1011600005C08FE191E00E942205FFCF95E09A959E
:10117000F1F700006C9A749885E08A95F1F7000009
:10118000112351F06C9895E09A95F1F700006D9855
:1011900085E08A95F1F70000DF91CF911F910895C6
:1011A000FC016623D1F14FEF460F50E04F5F5F4FD8
:1011B000480F591F908128E016C06D9A759885E0F8
:1011C0008A95F1F700006C9885E08A95F1F70000A8
:1011D0006C9A749885E08A95F1F700009081990FD8
:1011E0009083215021F097FFE8CF6D98E8CF31969A
:1011F0006D9885E08A95F1F700006C98659918C0A4
:1012000085E08A95F1F700006C9A749885E08A95DC
:10121000F1F70000E417F50769F66C9885E08A9508
:10122000F1F700006D9885E08A95F1F700000895C8
:101230008CE191E00E942205FFCF0F931F93CF9383
:10124000DF93082FEB01142F0E94020887E013C0E0
:101250006D9895E09A95F1F700006C9895E09A9555
:10126000F1F700006C9A749895E09A95F1F70000F8
:10127000000F815029F006FDEBCF6D9A7598E9CFEC
:101280006D9885E08A95F1F700006C9895E09A9545
:10129000F1F700006C9A749885E08A95F1F70000E8
:1012A0006D9895E09A95F1F700006C98659B05C0E4
:1012B00084E291E00E942205FFCF85E08A95F1F754
:1012C00000006C9A749895E09A95F1F700006D987B
:1012D00085E08A95F1F700001123B1F12FEF210F7E
:1012E00030E02F5F3F4F2C0F3D1F98E08881880F23
:1012F00088836C9885E08A95F1F70000659B03C0B0
:1013000088818160888385E08A95F1F700006C9A76
:10131000749885E08A95F1F70000915039F76D9A3D
:10132000759895E09A95F1F700006C9885E08A959C
:10133000F1F700006C9A749895E09A95F1F7000027
:1013400021962C173D0789F695E09A95F1F7000054
:101350006C9885E08A95F1F700006D9895E09A9574
:10136000F1F70000DF91CF911F910F910895CF9376
:10137000DF931F92CDB7DEB7498340E00E94430858
:1013800061E0CE0101960E94D0080F90DF91CF91CD
:1013900008951F93CF93DF931F92CDB7DEB7182F19
:1013A000198241E00E94430841E0BE016F5F7F4F18
:1013B000812F0E941D0989810F90DF91CF911F918C
:1013C000089561E08CE10C94C90963E08CE10C9410
:1013D000C90965E08CE10C94C909EAE7F0E0808175
:1013E00087688083ECE7F0E08081806680830895E1
:1013F00090917C00987F90937C0090917C00892B49
:1014000080937C0080917A00806480937A00809140
:101410007A0086FDFCCF809179000895FC010FB61B
:10142000F89460913F017091400180914101909149
:1014300042010FBE309721F06083718382839383D2
:1014400008950E94E50780E090E00E940E0ACB011B
:101450000E947A0C6FE780E00E944F0680E090E0E7
:101460000E94770080910001909101010E94BA01D1
:10147000C0E006C00E94A602C82F8C2F0E94FF0267
:101480008C2F0E9480028823A9F38C2F0E943E0398
:101490008C2F0E9464038111F0CFF2CFAA1BBB1BDB
:1014A00051E107C0AA1FBB1FA617B70710F0A61B64
:1014B000B70B881F991F5A95A9F780959095BC0185
:1014C000CD01089597FB072E16F4009407D077FD01
:1014D00009D00E944E0A07FC05D03EF490958195F4
:1014E0009F4F0895709561957F4F0895EE0FFF1FF0
:1014F0000590F491E02D0994A29FB001B39FC00123
:10150000A39F700D811D1124911DB29F700D811D2F
:101510001124911D08955058BB27AA270E94A30AA1
:101520000C94820B0E94740B38F00E947B0B20F00D
:1015300039F49F3F19F426F40C94710B0EF4E095E6
:10154000E7FB0C946B0BE92F0E94930B58F3BA172F
:10155000620773078407950720F079F4A6F50C94C9
:10156000B50B0EF4E0950B2EBA2FA02D0B01B9018F
:1015700090010C01CA01A0011124FF27591B99F009
:10158000593F50F4503E68F11A16F040A22F232F15
:10159000342F4427585FF3CF469537952795A79565
:1015A000F0405395C9F77EF41F16BA0B620B730B0C
:1015B000840BBAF09150A1F0FF0FBB1F661F771F7D
:1015C000881FC2F70EC0BA0F621F731F841F48F432
:1015D000879577956795B795F7959E3F08F0B0CFBB
:1015E0009395880F08F09927EE0F979587950895A2
:1015F0000E94FF0A6894B1110C94B60B08950E94E2
:101600009B0B88F09F5798F0B92F9927B751B0F0EE
:10161000E1F0660F771F881F991F1AF0BA95C9F776
:1016200014C0B13091F00E94B50BB1E008950C9454
:10163000B50B672F782F8827B85F39F0B93FCCF307
:10164000869577956795B395D9F73EF490958095F3
:10165000709561957F4F8F4F9F4F0895E89409C013
:1016600097FB3EF490958095709561957F4F8F4FD5
:101670009F4F9923A9F0F92F96E9BB279395F695EB
:10168000879577956795B795F111F8CFFAF4BB0F69
:1016900011F460FF1BC06F5F7F4F8F4F9F4F16C0CD
:1016A000882311F096E911C0772321F09EE8872F57
:1016B000762F05C0662371F096E8862F70E060E013
:1016C0002AF09A95660F771F881FDAF7880F96958C
:1016D000879597F9089597F99F6780E870E060E033
:1016E00008959FEF80EC089500240A9416161706BB
:1016F00018060906089500240A9412161306140603
:1017000005060895092E0394000C11F4882352F065
:10171000BB0F40F4BF2B11F460FF04C06F5F7F4F1D
:101720008F4F9F4F089557FD9058440F551F59F004
:101730005F3F71F04795880F97FB991F61F09F3FBE
:1017400079F087950895121613061406551FF2CFE7
:101750004695F1DF08C0161617061806991FF1CF37
:1017600086957105610508940895E894BB2766275E
:101770007727CB0197F908950E94CF0B0C94820B29
:101780000E94740B38F00E947B0B20F0952311F01F
:101790000C946B0B0C94710B11240C94B60B0E94DF
:1017A000930B70F3959FC1F3950F50E0551F629F07
:1017B000F001729FBB27F00DB11D639FAA27F00DAA
:1017C000B11DAA1F649F6627B00DA11D661F829FD1
:1017D0002227B00DA11D621F739FB00DA11D621FB6
:1017E000839FA00D611D221F749F3327A00D611DD3
:1017F000231F849F600D211D822F762F6A2F1124B5
:101800009F5750409AF0F1F088234AF0EE0FFF1FE7
:10181000BB1F661F771F881F91505040A9F79E3F3E
:10182000510580F00C946B0B0C94B60B5F3FE4F306
:10183000983ED4F3869577956795B795F795E79594
:101840009F5FC1F7FE2B880F911D9695879597F99D
:1018500008958F929F92AF92BF92CF92DF92EF92B4
:10186000FF92CF93DF93EC01688179818A819B811C
:10187000611571058105910521F464E279ED8BE52F
:1018800097E02DE133EF41E050E00E94850C4901E3
:101890005A019B01AC01A7EAB1E40E94A40C6B01C0
:1018A0007C01ACEEB4EFA50194010E94B20CDC0106
:1018B000CB018C0D9D1DAE1DBF1DB7FF03C0019751
:1018C000A109B04888839983AA83BB839F77DF915E
:1018D000CF91FF90EF90DF90CF90BF90AF909F900F
:1018E0008F9008950E94290C089582E091E00E9453
:1018F000290C0895A0E0B0E08093020190930301C9
:10190000A0930401B09305010895052E97FB1EF4E2
:1019100000940E949C0C57FD07D00E94B70C07FC56
:1019200003D04EF40C949C0C509540953095219525
:101930003F4F4F4F5F4F08959095809570956195FB
:101940007F4F8F4F9F4F08950E947C0AA59F900D57
:10195000B49F900DA49F800D911D11240895B7FF91
:101960000C94A40C0E94A40C821B930B0895A1E27A
:101970001A2EAA1BBB1BFD010DC0AA1FBB1FEE1F09
:10198000FF1FA217B307E407F50720F0A21BB30B54
:10199000E40BF50B661F771F881F991F1A9469F7D0
:1019A00060957095809590959B01AC01BD01CF012C
:0619B0000895F894FFCF3A
:1019B6000E0101000000733A2000703A20004C61CD
:1019C600623500616464724E41434B0077725F4E2C
:0E19D60041434B00726561644E41434B00007B
:00000001FF
